S00D00004C616237432E737265638E
S11300000C94FE000C941C010C941C010C941C0117
S11300100C941C010C941C010C941C010C941C01E8
S11300200C941C010C941C010C941C010C941C01D8
S11300300C941C010C941C010C9485010C941C015F
S11300400C941C010C941C010C941C010C941C01B8
S11300500C941C010C941C010C941C010C941C01A8
S11300600C941C010C941C010C941C010C941C0198
S11300700C941C010C941C010C941C010C941C0188
S11300800C941C010C941C010C941C010C941C0178
S11300900C941C010C941C010C941C010C941C0168
S11300A00C941C010C941C010C941C010C941C0158
S11300B00C941C010C941C010C941C010C941C0148
S11300C00C941C010C941C010C941C010C941C0138
S11300D00C941C010C941C010C941C010C941C0128
S11300E00C941C010C941C010C941C010C941C0118
S11300F00C941C010C941C010C941C010C941C0108
S11301000C941C010C941C010C941C010C941C01F7
S11301100C941C010C941C010C941C010C941C01E7
S11301200C941C010C941C010C941C010C941C01D7
S11301300C941C010C941C010C941C010C941C01C7
S11301400C941C010C941C010C941C010C941C01B7
S11301500C941C010C941C010C941C010C941C01A7
S11301600C941C010C941C010C941C010C941C0197
S11301700C941C010C941C010C941C010C941C0187
S11301800C941C010C941C010C941C010C941C0177
S11301900C941C010C941C010C941C010C941C0167
S11301A00C941C010C941C010C941C010C941C0157
S11301B00C941C010C941C010C941C010C941C0147
S11301C00C941C010C941C010C941C010C941C0137
S11301D00C941C010C941C010C941C010C941C0127
S11301E00C941C010C941C010C941C010C941C0117
S11301F00C941C010C941C010C941C0111241FBEB2
S1130200CFEFCDBFDFE3DEBF00E00CBF18BE19BEE9
S11302101ABE1BBE10E2A0E0B0E2EEE3F3E000E0A1
S11302200BBF02C007900D92A63DB107D9F71BBEC4
S11302300E9464010C949D010C9400008091D420D0
S1130240809350008091510081FFFCCF88ED84BFE2
S113025081E080934000089584E0809301068091BA
S1130260D320E0E0F3E080838091D220828308955C
S11302708091CD20E0E0F1E080838091CC20828BDE
S11302808091CB20838B8091CA2090E0848B958BC6
S11302908091C920868B80E090E2092E000CAA0B85
S11302A0BB0B808F492F5A2F6B2F7727418FCD019E
S11302B0AA27BB27828F88E1848F83E0858F168EDF
S11302C08091C820808B08950E941E010E942C01F9
S11302D00E9438010E9473010E947C0187E0809390
S11302E0A2007894FFCF8091D0209091D120809368
S11302F026089093270808958091CF20E0E0F8E045
S113030086838091CE20808308951F920F920FB62A
S11303100F92112408B60F9218BE8F939F938FB734
S113032091E090930C088FBF9F918F910F9008BE1E
S11103300F900FBE0F901F901895F894FFCFFA
S113033E0008810801098009FD09790AF20A680B8F
S113034EDB0B490CB40C190D7A0DD50D2A0E790E52
S113035EC10E030F3D0F700F9C0FC00FDC0FF00F7B
S113036EFC0FFF0FFC0FF00FDC0FC00F9C0F700F74
S113037E3D0F030FC10E790E2A0ED50D7A0D190DF0
S113038EB40C490CDB0B680BF20A790AFD098009DF
S113039E0109810800087F07FF068006030687050A
S11303AE0E0598042504B7034C03E70286022B02BC
S11303BED60187013F01FD00C30090006400400098
S11303CE240010000400000004001000240040006B
S11303DE64009000C300FD003F018701D6012B028B
S11303EE8602E7024C03B703250498040E0587051D
S11303FE03068006FF067F07A500C8405980040344
S109040E8900180502003C
S9030000FC
