:100000000C94FE000C941C010C941C010C941C011B
:100010000C941C010C941C010C941C010C941C01EC
:100020000C941C010C941C010C941C010C941C01DC
:100030000C941C010C941C010C941C010C941C01CC
:100040000C941C010C941C010C941C010C941C01BC
:100050000C941C010C941C010C941C010C941C01AC
:100060000C941C010C941C010C941C010C941C019C
:100070000C941C010C941C010C941C010C941C018C
:100080000C941C010C941C010C941C010C941C017C
:100090000C941C010C941C010C941C010C941C016C
:1000A0000C941C010C941C010C941C010C941C015C
:1000B0000C941C010C941C010C941C010C941C014C
:1000C0000C941C010C941C010C941C010C941C013C
:1000D0000C941C010C941C010C941C010C941C012C
:1000E0000C941C010C941C010C941C010C941C011C
:1000F0000C941C010C941C010C941C010C941C010C
:100100000C941C010C941C010C941C010C941C01FB
:100110000C941C010C941C010C941C010C941C01EB
:100120000C941C010C941C010C941C010C941C01DB
:100130000C941C010C941C010C941C010C941C01CB
:100140000C941C010C941C010C941C010C941C01BB
:100150000C941C010C941C010C941C010C941C01AB
:100160000C941C010C941C010C941C010C941C019B
:100170000C941C010C941C010C941C010C941C018B
:100180000C941C010C941C010C941C010C941C017B
:100190000C941C010C941C010C941C010C941C016B
:1001A0000C941C010C941C010C941C010C941C015B
:1001B0000C941C010C941C010C941C010C941C014B
:1001C0000C941C010C941C010C941C010C941C013B
:1001D0000C941C010C941C010C941C010C941C012B
:1001E0000C941C010C941C010C941C010C941C011B
:1001F0000C941C010C941C010C941C0111241FBEB6
:10020000CFEFCDBFDFE3DEBF00E00CBF18BE19BEED
:100210001ABE1BBE10E2A0E0B0E2EAEBF2E000E0A2
:100220000BBF02C007900D92A830B107D9F71BBED3
:100230000E942C010C945B010C940000809106201C
:10024000809350008091510081FFFCCF88ED84BFE6
:1002500081E08093400008950E941E010E943401B5
:1002600083E50E944C01FCCF80910520E0EAF6E096
:1002700081838091042082838091032085838091F3
:100280000220E0E0F6E08183809101208683809166
:1002900000208093C00B089598E19093A606809368
:1002A000C30B8091C20B87FFFCCF88E18093A5062A
:0A02B0008091C30B0895F894FFCF6E
:0802BA005F10181840BC02009F
:00000001FF
