:020000020000FC
:020108000CC227
:0200380050C2B4
:02000000FFC13E
:100400000E94A0020E941B020FEF009302065FEF02
:10041000509341060EEF0093440603E00093090653
:1004200001E000930A0601E00093100607E0009344
:10043000A2007894FFCF0F931F9307E000936E06FE
:1004400000E70093610600E40093700600937106D4
:10045000009372060093730600937406009375066A
:1004600000937606009377060FEF10E000932609BD
:10047000109327091093030913E71093010900E56E
:1004800000932C0900E000932D0900E000932A0955
:1004900000E000932B0900E50093280900E0009399
:1004A000290907E0009300091F910F9108950F9308
:1004B0001F9310E00FEF00932608109327081F9159
:1004C0000F9108950F932F9303E00093060827E000
:1004D000209300082F910F9108950F931F933F933E
:1004E0005F933091080611E03123311751F43091B8
:1004F00044063095330F303009F431E030953093B5
:10050000440600E0009306080093000803E000930F
:10051000090651E050930C065F913F911F910F9196
:1005200018950F935F9300E0009309060E9457020D
:100530000E94620251E050930C065F910F91189552
:100540001F932F933F934F9302E00093500010911D
:10055000510010231017D9F718ED1093340011E053
:0E056000109340004F913F912F911F910895ED
:00000001FF
