:100000000C94FE000C9424010C94CA010C9424015D
:100010000C9424010C9424010C9424010C942401CC
:100020000C9424010C9424010C9424010C942401BC
:100030000C9424010C9424010C9424010C942401AC
:100040000C9424010C9424010C9424010C9424019C
:100050000C9424010C9424010C9424010C9424018C
:100060000C9424010C9424010C9424010C9424017C
:100070000C9424010C9424010C9424010C9424016C
:100080000C9424010C9424010C9424010C9424015C
:100090000C9424010C9424010C9424010C9424014C
:1000A0000C9424010C9424010C9424010C9424013C
:1000B0000C9424010C9424010C9424010C9424012C
:1000C0000C9424010C9424010C9424010C9424011C
:1000D0000C9424010C9424010C9424010C9424010C
:1000E0000C9424010C9424010C9424010C942401FC
:1000F0000C9424010C9424010C9424010C942401EC
:100100000C9424010C9424010C94B0010C9424014F
:100110000C9424010C9424010C9424010C942401CB
:100120000C9424010C9424010C9424010C942401BB
:100130000C9424010C9424010C9424010C942401AB
:100140000C9424010C9424010C9424010C9424019B
:100150000C9424010C9424010C9424010C9424018B
:100160000C9424010C9424010C9424010C9424017B
:100170000C9424010C9424010C9424010C9424016B
:100180000C9424010C9424010C9424010C9424015B
:100190000C9424010C9424010C9424010C9424014B
:1001A0000C9424010C9424010C9424010C9424013B
:1001B0000C9424010C9424010C9424010C9424012B
:1001C0000C9424010C9424010C9424010C9424011B
:1001D0000C9424010C9424010C9424010C9424010B
:1001E0000C9424010C9424010C9424010C942401FB
:1001F0000C9424010C9424010C94240111241FBE9E
:10020000CFEFCDBFDFE3DEBF00E00CBF18BE19BEED
:100210001ABE1BBE10E2A0E0B0E2EAEEF5E000E09C
:100220000BBF02C007900D92A431B107D9F71BBED6
:1002300020E2A4E1B0E201C01D92A232B207E1F7D0
:100240000E948D020C94F3020C9400008091122005
:10025000809350008091510081FFFCCF88ED84BFD6
:1002600081E0809340000895CF93C82F811105C08D
:1002700084E08093A60680E106C0813031F484E0FA
:100280008093A50688E08093A606862F80680E944A
:10029000C2020E94CB02C11102C090E103C0C13072
:1002A00019F498E09093A506CF910895CF93DF932A
:1002B000C82F862FD42FC11105C094E09093A606B5
:1002C00090E106C0C13031F494E09093A50698E027
:1002D0009093A6060E94C2028D2F0E94C202C111F5
:1002E00002C080E103C0C13019F488E08093A50604
:1002F000DF91CF910895E0E4F6E080E88283809179
:100300000B20818780910A20828780910920878B2A
:1003100048EC63E281E00E94560147E960E281E037
:100320000C945601E0E0F6E082E0828380910820A0
:10033000818780910720828780910620818B88E0C9
:1003400085834FEC60E280E00E94560148E062E263
:1003500080E00E94560140E363E280E00C94560185
:100360001F920F920FB60F92112408B60F9218BE6B
:100370008F939F939FB781E080930C0680932020FA
:100380009FBF9F918F910F9008BE0F900FBE0F904F
:100390001F9018951F920F920FB60F92112408B656
:1003A0000F9218BE8F939F939FB781E080934C0666
:1003B000809321209FBF9F918F910F9008BE0F9037
:1003C0000FBE0F901F90189583E00E94EC02809161
:1003D0001F200E94EC0280911E200E94EC0280915E
:1003E0001D200E94EC0280911C200E94EC02809152
:1003F0001B200E94EC0280911A200E94EC02809146
:1004000019200E94EC02809118200E94EC02809139
:1004100017200E94EC02809116200E94EC0280912D
:1004200015200E94EC02809114200E94EC028CEFB7
:100430000C94EC0268E281E00E94340180931F205A
:1004400069E281E00E94340180931E206AE281E02B
:100450000E94340180931D206BE281E00E943401F0
:1004600080931C206CE281E00E94340180931B2069
:100470006DE281E00E94340180931A2010922120C5
:10048000089568E280E00E9434018093192069E2B7
:1004900080E00E943401809318206AE280E00E948C
:1004A0003401809317206BE280E00E943401809336
:1004B00016206CE280E00E943401809315206DE2EA
:1004C00080E00E943401809314201092202008952F
:1004D00069E280E00E9434018093182068E280E0A5
:1004E0000E943401809319206BE280E00E94340165
:1004F000809316206AE280E00E94340180931720E6
:100500006DE280E00E943401809314206CE280E070
:100510000E9434018093152008950E9426010E94B4
:10052000CE020E94AA020E947B010E94920187E0F3
:100530008093A20078940E9468028091212081110A
:100540000E941A028091202081110E9441020E9483
:10055000E401F3CF80911120E0EAF6E081838091FD
:100560001020828380910F20858380910E20E0E00F
:10057000F6E0818380910D20868380910C2080930A
:10058000C00B08958093C30B8091C20B87FFFCCFF3
:100590008091C30B08958FEF0C94C20280910520C7
:1005A000E0E6F6E081838583809104208283809158
:1005B00003208093A409809102208093A509809153
:1005C0000120E0EAF9E086838091002020E1829F0B
:1005D000C0011124878308959091A10995FFFCCF54
:0A05E0008093A0090895F894FFCF5E
:1005EA00FB20031804081902030280035C10181880
:0405FA0040BC0200FF
:00000001FF
