:020000020000FC
:0200000009C233
:040160000C943302C6
:100400005465737420666F72204F55545F53545275
:10041000494E47000E9476020E943F0207E0009387
:10042000A200789400E7009361060E9423021091D5
:10043000200B2091210B2030D1F71030C1F720E79D
:1004400020936706F4CF0F931F932F9309E01DE3CA
:1004500027E00093260B1093270B2093000B2F917E
:100460001F910F9108950F931090A0090091A10979
:10047000087F0093A1090E9459020F9118950F93CC
:1004800008E0009361060093650604E000936206AD
:1004900000E10093A30908E10093A40903E300939A
:1004A000A50904EB0093A70907E30093A6090F91A0
:1004B00008950F930091A10905FFFCCF1092A009A8
:1004C0000F9108950F930591003029F0102E0E948E
:1004D00059020C9463020F9108950F930091A109A2
:1004E00007FFFCCF1090A0090F9108951F932F9341
:1004F0003F934F9302E0009350001091510010235E
:100500001017D9F718ED1093340011E01093400044
:0A0510004F913F912F911F91089524
:00000001FF
