S010000054657374326156322E7372656359
S11300000C94FE000C9424010C94CA010C94240159
S11300100C9424010C9424010C9424010C942401C8
S11300200C9424010C9424010C9424010C942401B8
S11300300C9424010C9424010C9424010C942401A8
S11300400C9424010C9424010C9424010C94240198
S11300500C9424010C9424010C9424010C94240188
S11300600C9424010C9424010C9424010C94240178
S11300700C9424010C9424010C9424010C94240168
S11300800C9424010C9424010C9424010C94240158
S11300900C9424010C9424010C9424010C94240148
S11300A00C9424010C9424010C9424010C94240138
S11300B00C9424010C9424010C9424010C94240128
S11300C00C9424010C9424010C9424010C94240118
S11300D00C9424010C9424010C9424010C94240108
S11300E00C9424010C9424010C9424010C942401F8
S11300F00C9424010C9424010C9424010C942401E8
S11301000C9424010C9424010C94B0010C9424014B
S11301100C9424010C9424010C9424010C942401C7
S11301200C9424010C9424010C9424010C942401B7
S11301300C9424010C9424010C9424010C942401A7
S11301400C9424010C9424010C9424010C94240197
S11301500C9424010C9424010C9424010C94240187
S11301600C9424010C9424010C9424010C94240177
S11301700C9424010C9424010C9424010C94240167
S11301800C9424010C9424010C9424010C94240157
S11301900C9424010C9424010C9424010C94240147
S11301A00C9424010C9424010C9424010C94240137
S11301B00C9424010C9424010C9424010C94240127
S11301C00C9424010C9424010C9424010C94240117
S11301D00C9424010C9424010C9424010C94240107
S11301E00C9424010C9424010C9424010C942401F7
S11301F00C9424010C9424010C94240111241FBE9A
S1130200CFEFCDBFDFE3DEBF00E00CBF18BE19BEE9
S11302101ABE1BBE10E2A0E0B0E2E6EFF5E000E09B
S11302200BBF02C007900D92A032B107D9F71BBED5
S113023020E2A0E2B0E201C01D92AE32B207E1F7C3
S11302400E9470020C94F9020C94000080911F200B
S1130250809350008091510081FFFCCF88ED84BFD2
S113026081E0809340000895CF93C82F811105C089
S113027084E08093A60680E106C0813031F484E0F6
S11302808093A50688E08093A606862F80680E9446
S1130290BD020E94C602C11102C090E103C0C13078
S11302A019F498E09093A506CF910895CF93DF9326
S11302B0C82F862FD42FC11105C094E09093A606B1
S11302C090E106C0C13031F494E09093A50698E023
S11302D09093A6060E94BD028D2F0E94BD02C111FB
S11302E002C080E103C0C13019F488E08093A50600
S11302F0DF91CF910895E0E4F6E080E88283809175
S11303001820818780911720828780911620878BFF
S113031048EC63E281E00E94560147E960E281E033
S11303200C945601E0E0F6E082E08283809115208F
S1130330818780911420828780911320818B88E0AB
S113034085834FEC60E280E00E94560148E062E25F
S113035080E00E94560140E363E280E00C94560181
S11303601F920F920FB60F92112408B60F9218BE67
S11303708F939F939FB781E080930C0680932C20EA
S11303809FBF9F918F910F9008BE0F900FBE0F904B
S11303901F9018951F920F920FB60F92112408B652
S11303A00F9218BE8F939F939FB781E080934C0662
S11303B080932D209FBF9F918F910F9008BE0F9027
S11303C00FBE0F901F90189568E281E00E943401DF
S11303D080932B2069E281E00E94340180932A20DB
S11303E06AE281E00E943401809329206BE281E07B
S11303F00E943401809328206CE281E00E94340141
S1130400809327206DE281E00E94340180932620AE
S113041010922D20089569E280E00E9434018093B7
S1130420242068E280E00E943401809325206BE25E
S113043080E00E943401809322206AE280E00E94DE
S11304403401809323206DE280E00E943401809384
S113045020206CE280E00E943401809321200895E2
S11304601F93CF93DF93C0912A20D091282010911D
S11304702620C7FDC195D7FDD19517FD1195CD3324
S11304804CF4DD337CF41D3394F4DC1744F41C1772
S113049084F402C010E0D0E080E090E20CC01D17AC
S11304A044F402C010E0C0E088E090E204C0D0E070
S11304B0C0E084E090E20E94ED0210932C091092B7
S11304C02D09D0932A0910922B09C0932809109260
S11304D0290987E080930009DF91CF911F91089546
S11304E00E9426010E94C9020E94A5020E947B016B
S11304F00E9492010E94910287E08093A200789466
S11305000E940B0280E78093610680E58093650674
S113051080912D208823E1F30E94E4010E9430029F
S1130520F7CFE0E6F6E087E0868780E7818380E422
S1130530848B858B868BE0E0F9E08FEF90E086A3D7
S113054097A3138283E78183089580911E20E0EAB4
S1130550F6E0818380911D20828380911C20858315
S113056080911B20E0E0F6E0818380911A2086834D
S1130570809119208093C00B08958093C30B8091C0
S1130580C20B87FFFCCF8091C30B08958FEF0C94AF
S1130590BD0280911220E0E6F6E08183858380919C
S11305A011208283809110208093A40980910F20D0
S11305B08093A50980910D20E0EAF9E0868380917B
S11305C00C2090910E20892B878308959091A10986
S11305D095FFFCCF8093A0090895CF93DF93EC019E
S11305E08991882319F00E94E602FACFDF91CF9116
S10905F00895F894FFCF0A
S11305F6580D0A005A0D0A00590D0A00B08E080358
S11306061804081902030280035C10181840BC027F
S9030000FC
