S00D00004C616237422E737265638F
S11300000C94FE000C9424010C9424010C942401FF
S11300100C9424010C9424010C9424010C942401C8
S11300200C9424010C9424010C9424010C942401B8
S11300300C9424010C9424010C9464010C94240168
S11300400C9424010C9424010C9424010C94240198
S11300500C9424010C9424010C9424010C94240188
S11300600C9424010C9424010C9424010C94240178
S11300700C9424010C9424010C9424010C94240168
S11300800C9424010C9424010C9424010C94240158
S11300900C9424010C9424010C9424010C94240148
S11300A00C9424010C9424010C9424010C94240138
S11300B00C9424010C9424010C9424010C94240128
S11300C00C9424010C9424010C9424010C94240118
S11300D00C9424010C9424010C9424010C94240108
S11300E00C9424010C9424010C9424010C942401F8
S11300F00C9424010C9424010C9424010C942401E8
S11301000C9424010C9424010C9424010C942401D7
S11301100C9424010C9424010C9424010C942401C7
S11301200C9424010C9424010C9424010C942401B7
S11301300C9424010C9424010C9424010C942401A7
S11301400C9424010C9424010C9424010C94240197
S11301500C9424010C9424010C9424010C94240187
S11301600C9424010C9424010C9424010C94240177
S11301700C9424010C9424010C9424010C94240167
S11301800C9424010C9424010C9424010C94240157
S11301900C9424010C9424010C9424010C94240147
S11301A00C9424010C9424010C9424010C94240137
S11301B00C9424010C9424010C9424010C94240127
S11301C00C9424010C9424010C9424010C94240117
S11301D00C9424010C9424010C9424010C94240107
S11301E00C9424010C9424010C9424010C942401F7
S11301F00C9424010C9424010C94240111241FBE9A
S1130200CFEFCDBFDFE3DEBF00E00CBF18BE19BEE9
S11302101ABE1BBE10E2A0E0B0E2E6E6F3E000E0A6
S11302200BBF02C007900D92A03DB107D9F71BBECA
S113023020E2A0EDB0E201C01D92A13DB207E1F7BA
S11302400E9445010C94B1010C9400008091CE20D1
S1130250809350008091510081FFFCCF88ED84BFD2
S113026081E080934000089584E0809301068091AA
S1130270CD20E0E0F3E080838091CC208283089558
S1130280809318039093190308950E9426010E94F5
S113029034010E9452010E945B0187E08093A20016
S11302A07894FFCF8091CA209091CB208093260828
S11302B09093270808958091C920E0E0F8E08683B0
S11302C08091C820808308951F920F920FB60F92D9
S11302D0112408B60F9218BE09B60F9219BE0BB6B8
S11302E00F921BBE2F933F934F935F936F937F9314
S11302F08F939F93AF93BF93CF93EF93FF93CFB716
S1130300E091D02081E08E0F8093D020F0E0EE0FBA
S1130310FF1FE050F04E808191810E944001809146
S1130320D020843611F41092D02081E080930C0800
S1130330CFBFFF91EF91CF91BF91AF919F918F91DB
S11303407F916F915F914F913F912F910F900BBED1
S11303500F9009BE0F9008BE0F900FBE0F901F9014
S10903601895F894FFCF8C
S11303660008810801098009FD09790AF20A680B67
S1130376DB0B490CB40C190D7A0DD50D2A0E790E2A
S1130386C10E030F3D0F700F9C0FC00FDC0FF00F53
S1130396FC0FFF0FFC0FF00FDC0FC00F9C0F700F4C
S11303A63D0F030FC10E790E2A0ED50D7A0D190DC8
S11303B6B40C490CDB0B680BF20A790AFD098009B7
S11303C60109810800087F07FF06800603068705E2
S11303D60E0598042504B7034C03E70286022B0294
S11303E6D60187013F01FD00C30090006400400070
S11303F62400100004000000040010002400400043
S113040664009000C300FD003F018701D6012B0262
S11304168602E7024C03B703250498040E058705F4
S113042603068006FF067F070403890018050200F9
S9030000FC
