:020000020000FC
:1000000000C00E942F0004E000936E0600E70093FA
:10001000610600E400937006009371060093720677
:10002000009373060093740600937506009376069A
:10003000009377060FEF10E000932609109327092D
:100040001093030913E4109301090FE010E00093EB
:100050002C0910932D0907E000930009FFCF1F938F
:100060002F933F934F9302E0009350001091510063
:1000700010231017D9F718ED1093340011E01093E6
:0C00800040004F913F912F911F91089577
:00000001FF
