:020000020000FC
:02010800C1C173
:02000000FFC13E
:1004000002E0402E01E0502E0E945F025FEF509309
:1004100041065093440600E00093020601E0A090DC
:1004200008060A21013039F402E0602E41E0942EE2
:100430000E945B0207C001E0602E40E0942E1FEF97
:10044000109344060E943A0207E00093A2007894B9
:1004500001E0901659F42FEF0E9476022093440693
:100460000E945B020E9476020E9439022FEF2093C5
:100470004406EECF00E00093020603E00093090675
:1004800001E000930A0660921006089500E00093D0
:100490000906641441F41FEF1093440640E0942EC3
:1004A000652C0C9458020E945B0241E0942E642C4F
:1004B0000E943A0218951EEF1093440608951F9368
:1004C0002F933F934F9302E00093500010915100FF
:1004D00010231017D9F718ED1093340011E0109382
:1004E00040004F913F912F911F9108958F939F93BB
:1004F00087E09BE0903019F4803009F402C0019746
:02050000F9CF31
:00000001FF
