:100000000C94FE000C941C010C941C010C941C011B
:100010000C941C010C941C010C941C010C941C01EC
:100020000C941C010C941C010C941C010C941C01DC
:100030000C941C010C941C010C948E020C941C0159
:100040000C941C010C941C010C941C010C941C01BC
:100050000C941C010C941C010C941C010C941C01AC
:100060000C941C010C941C010C941C010C941C019C
:100070000C941C010C941C010C941C010C941C018C
:100080000C941C010C941C010C941C010C941C017C
:100090000C941C010C941C010C941C010C941C016C
:1000A0000C941C010C941C010C941C010C941C015C
:1000B0000C941C010C941C010C941C010C941C014C
:1000C0000C941C010C941C010C941C010C941C013C
:1000D0000C941C010C941C010C941C010C941C012C
:1000E0000C941C010C941C010C941C010C941C011C
:1000F0000C941C010C941C010C941C010C941C010C
:100100000C941C010C941C010C941C010C941C01FB
:100110000C941C010C941C010C941C010C941C01EB
:100120000C941C010C941C010C941C010C941C01DB
:100130000C941C010C941C010C941C010C941C01CB
:100140000C941C010C941C010C941C010C941C01BB
:100150000C941C010C941C010C941C010C941C01AB
:100160000C941C010C941C010C941C010C941C019B
:100170000C941C010C941C010C941C010C941C018B
:100180000C941C010C941C010C941C010C941C017B
:100190000C941C010C941C010C941C010C941C016B
:1001A0000C941C010C941C010C941C010C941C015B
:1001B0000C941C010C941C010C941C010C941C014B
:1001C0000C941C010C941C010C941C010C941C013B
:1001D0000C941C010C941C010C941C010C941C012B
:1001E0000C941C010C941C010C941C010C941C011B
:1001F0000C941C010C941C010C941C0111241FBEB6
:10020000CFEFCDBFDFE3DEBF00E00CBF18BE19BEED
:100210001ABE1BBE13E2A0E0B0E2E6EEF5E000E09D
:100220000BBF02C007900D92A43CB107D9F71BBECB
:100230000E94F9010C94F1020C9400008091C223F9
:10024000809350008091510081FFFCCF88ED84BFE6
:1002500081E080934000089584E0809301068091BE
:10026000C123E0E0F3E080838091C023828308957E
:100270008091110187FDFCCF88EC90E2092E000CE3
:10028000AA0BBB0B80931801492F5A2F6B2F77278E
:1002900040931901CD01AA27BB2780931A0188E159
:1002A00080931C0183E080931D0110921E0108952C
:1002B0008091110187FDFCCF80E090E2092E000CB7
:1002C000AA0BBB0B80931801492F5A2F6B2F77274E
:1002D00040931901CD01AA27BB2780931A0188E119
:1002E00080931C0183E080931D0110921E010895EC
:1002F0009091BB23909300019091BA2390931201A7
:100300009091B923909313012091B82330E020936A
:100310001401309315019091B72390931601833700
:1003200019F40E94380104C0843711F40E94580166
:100330008091B623809310010895E0E0F1E01082EF
:1003400090E490830C947801EF92FF920F931F93A7
:10035000CF93DF93CDB7DEB76897CDBFDEBF80E91F
:1003600091E289839A8389EA91E28B839C8387EC6B
:1003700091E28D839E8382EF91E28F83988781E261
:1003800092E289879A8781E592E28B879C8781E850
:1003900092E28D879E8781EB92E28F87988B81EE28
:1003A00092E2898B9A8B81E193E28B8B9C8B81E427
:1003B00093E28D8B9E8B81E793E28F8B988F8E01DA
:1003C0000F5F1F4F7E0189E1E80EF11CF80181915A
:1003D00091918F010E94CA020E151F05B9F7689608
:1003E000CDBFDEBFDF91CF911F910F91FF90EF90B6
:1003F00008950E941E010E942C0183E70E9478014B
:100400000E9461020E946A020E94A60287E0809315
:10041000A20078940E94A4010E94D602C82F81EA0B
:1004200093E20E94CA028C2F0E94C3028EE192E2E4
:100430000E94CA02C633B9F170F4C23371F130F4CC
:10044000C03301F1C133B1F581E032C0C43339F1B9
:1004500040F583E02DC0C33579F038F4C83339F165
:1004600020F1C93339F589E023C0C33729F0C437F7
:1004700029F0C435F9F402C083E701C084E70E9483
:100480009D0118C00E94730210922608109227083E
:1004900010921803109219030DC082E009C084E085
:1004A00007C085E005C086E003C087E001C088E0A2
:1004B0000E947B02C153C93008F0ACCF0E946A028F
:1004C000A9CF8091BE239091BF238093260890935B
:1004D000270808958091BD23E0E0F8E086838091AD
:1004E000BC2380830895E0E0F8E01682108288E063
:1004F000809308080895CF93C82F0E9473026C2F31
:1005000070E08091BE239091BF230E94DD02609332
:10051000260870932708CF910C946A021F920F92BD
:100520000FB60F92112408B60F9218BE8F939F93A7
:100530008FB791E090930C088FBF9F918F910F9090
:1005400008BE0F900FBE0F901F9018958091B52395
:10055000E0E6F6E0818385838091B42382838091F5
:10056000B3238093A4098091B2238093A50980913D
:10057000B023E0EAF9E086838091AF239091B12324
:10058000892B878308959091A10995FFFCCF8093D3
:10059000A0090895CF93DF93EC018991882319F086
:1005A0000E94C302FACFDF91CF9108958091A109F3
:1005B00087FFFCCF8091A0090895AA1BBB1B51E1C6
:1005C00007C0AA1FBB1FA617B70710F0A61BB70BC3
:1005D000881F991F5A95A9F780959095BC01CD0168
:0605E0000895F894FFCF1E
:1005E6005200A400F60048019A01EC013D028F0278
:1005F600E10233038503D70329047B04CD041F05D9
:100606007105C30514066606B8060A075C07AE0739
:1006160000085208A408F60848099A09EC093D0A98
:100626008F0AE10A330B850BD70B290C7B0CCD0CFB
:100636001F0D710DC30D140E660EB80E0A0F5C0F5A
:10064600AE0FFF0FAE0F5C0F0A0FB80E660E140E3C
:10065600C30D710D1F0DCD0C7B0C290CD70B850B13
:10066600330BE10A8F0A3D0AEC099A094809F60894
:10067600A40852080008AE075C070A07B806660613
:100686001406C30571051F05CD047B042904D70391
:1006960085033303E1028F023D02EC019A01480112
:1006A600F600A40052000000000881080109800934
:1006B600FD09790AF20A680BDB0B490CB40C190D1B
:1006C6007A0DD50D2A0E790EC10E030F3D0F700F50
:1006D6009C0FC00FDC0FF00FFC0FFF0FFC0FF00F8D
:1006E600DC0FC00F9C0F700F3D0F030FC10E790E6C
:1006F6002A0ED50D7A0D190DB40C490CDB0B680BBF
:10070600F20A790AFD0980090109810800087F07B4
:10071600FF068006030687050E0598042504B70321
:100726004C03E70286022B02D60187013F01FD003A
:10073600C300900064004000240010000400000084
:10074600040010002400400064009000C300FD0077
:100756003F018701D6012B028602E7024C03B7034D
:10076600250498040E05870503068006FF067F0705
:10077600532F733A204F7574707574206120736916
:100786006E75736F69640D0A00542F743A204F75A5
:1007960074707574206120747269616E676C65206F
:1007A600776176650D0A00303A204D616B652074DD
:1007B6006865206F75747075742077617665666FED
:1007C600726D3A3020487A20616E64203020560DD2
:1007D6000A00313A204D616B6520746865206F759B
:1007E600747075742077617665666F726D3A353010
:1007F600487A202831207820353020487A290D0A79
:1008060000323A204D616B6520746865206F7574FF
:100816007075742077617665666F726D3A31303027
:10082600487A202832207820353020487A290D0A47
:1008360000333A204D616B6520746865206F7574CE
:100846007075742077617665666F726D3A313530F2
:10085600487A202833207820353020487A290D0A16
:1008660000343A204D616B6520746865206F75749D
:100876007075742077617665666F726D3A313030C7
:10088600487A202834207820353020487A290D0AE5
:1008960000353A204D616B6520746865206F75746C
:1008A6007075742077617665666F726D3A32353091
:1008B600487A202835207820353020487A290D0AB4
:1008C60000363A204D616B6520746865206F75743B
:1008D6007075742077617665666F726D3A33303065
:1008E600487A202836207820353020487A290D0A83
:1008F60000373A204D616B6520746865206F75740A
:100906007075742077617665666F726D3A3335302F
:10091600487A202837207820353020487A290D0A51
:1009260000383A204D616B6520746865206F7574D8
:100936007075742077617665666F726D3A34303003
:10094600487A202838207820353020487A290D0A20
:1009560000393A204D616B6520746865206F7574A7
:100966007075742077617665666F726D3A343530CE
:10097600487A202839207820353020487A290D0AEF
:1009860000555345522043484F4943453A2000B04D
:100996008E0803180408A500C840598004033603CE
:0409A600180502002E
:00000001FF
