:020000020000FC
:1000000000C00E942F000FEF10E026E00093260BA7
:100010001093270B2093000B00E7009361063091AB
:10002000200B303019F42FE820936406383C31F46B
:1000300040E150916406542B50936406383231F4F9
:1000400040E250916406542B509364063E3131F4E3
:1000500040E450916406542B50936406E0CF1F9304
:100060002F933F934F9302E0009350001091510063
:1000700010231017D9F718ED1093340011E01093E6
:0C00800040004F913F912F911F91089577
:00000001FF
