:020000020000FC
:0200000009C233
:100400005465737420666F72204F55545F53545275
:10041000494E47000E944B020E941702E0E0F4E0C0
:100420000E9437020E9442020E942E02FBCF0F93CD
:1004300008E0009361060093650604E000936206FD
:1004400008E10093A40903E30093A50904EB0093DA
:10045000A70907E30093A6090F9108950F93009150
:10046000A10905FFFCCF1092A0090F9108950F93E9
:100470000591003029F0102E0E942E020C943802B3
:100480000F9108950F930091A10907FFFCCF1090E1
:10049000A0090F9108951F932F933F934F9302E06C
:1004A000009350001091510010231017D9F718ED48
:1004B0001093340011E0109340004F913F912F9121
:0404C0001F910895EB
:00000001FF
