:100000000C94FE000C9424010C9424010C94240103
:100010000C9424010C9424010C9424010C942401CC
:100020000C9424010C9424010C9424010C942401BC
:100030000C9424010C9424010C94CF010C94240101
:100040000C9424010C9424010C9424010C9424019C
:100050000C9424010C9424010C9424010C9424018C
:100060000C9424010C9424010C9424010C9424017C
:100070000C9424010C9424010C9424010C9424016C
:100080000C9424010C9424010C9424010C9424015C
:100090000C9424010C9424010C9424010C9424014C
:1000A0000C9424010C9424010C9424010C9424013C
:1000B0000C9424010C9424010C9424010C9424012C
:1000C0000C9424010C9424010C9424010C9424011C
:1000D0000C9424010C9424010C9424010C9424010C
:1000E0000C9424010C9424010C9424010C942401FC
:1000F0000C9424010C9424010C9424010C942401EC
:100100000C9424010C9424010C9424010C942401DB
:100110000C9424010C9424010C9424010C942401CB
:100120000C9424010C9424010C9424010C942401BB
:100130000C9424010C9424010C9424010C942401AB
:100140000C9424010C9424010C9424010C9424019B
:100150000C9424010C9424010C9424010C9424018B
:100160000C9424010C9424010C9424010C9424017B
:100170000C9424010C9424010C9424010C9424016B
:100180000C9424010C9424010C9424010C9424015B
:100190000C9424010C9424010C9424010C9424014B
:1001A0000C9424010C9424010C9424010C9424013B
:1001B0000C9424010C9424010C9424010C9424012B
:1001C0000C9424010C9424010C9424010C9424011B
:1001D0000C9424010C9424010C9424010C9424010B
:1001E0000C9424010C9424010C9424010C942401FB
:1001F0000C9424010C9424010C94240111241FBE9E
:10020000CFEFCDBFDFE3DEBF00E00CBF18BE19BEED
:100210001ABE1BBE10E2A0E0B0E2EEEFF3E000E099
:100220000BBF02C007900D92AC30B107D9F71BBECF
:1002300020E2ACE0B0E201C01D92A53DB207E1F7BB
:100240000E94AD010C94FD010C940000E0E0F2E08E
:1002500081E0808390E3928394E0918397E094839C
:1002600092E09093020680A388E081A30895809194
:100270000B20809350008091510081FFFCCF88EDCE
:1002800084BF81E080934000089584E0809301065C
:1002900080910A20E0E0F3E080838091092082834E
:1002A00008950F931F938091110187FDFCCF8091DA
:1002B000210187FDFCCF8CE090E2092E000CAA0BF7
:1002C000BB0B24E22093180122E020931901109225
:1002D0001A0180931C01092F1A2F2B2F332700930B
:1002E0001D01AD016627772740931E0180932801E9
:1002F0000093290140932A0188E180932C0183E037
:1003000080932D0110922E011F910F910895CF938C
:10031000DF9380910620C0E0D1E0888385E98A8B55
:10032000809105208AA3809104208B8B80910320EB
:100330008BA38091022090E08C8B9D8B8CA39DA33E
:10034000809101208E8B8EA30E945101809100200C
:10035000888B88A3DF91CF9108950E9437010E9476
:1003600045010E9426010E94BF0184E60E94870188
:100370000E94C60187E08093A2007894FFCF80E8B6
:100380009CE0809326089093270808958091082088
:10039000E0E0F8E0868380910720808308951F9233
:1003A0000F920FB60F92112408B60F9218BE0BB61B
:1003B0000F921BBE2F933F938F939F93EF93FF93C7
:1003C0009FB7E0E0F2E080A1806880A324A135A17E
:1003D0002093D42081E080930C089FBFFF91EF9180
:1003E0009F918F913F912F910F900BBE0F9008BE60
:0E03F0000F900FBE0F901F901895F894FFCF3E
:0C03FE00A500C840105980040318050237
:00000001FF
