S00D00004C616235612E7372656372
S11300000C94FE000C941C010C941C010C941C0117
S11300100C941C010C941C010C941C010C941C01E8
S11300200C941C010C941C010C941C010C941C01D8
S11300300C941C010C941C010C941C010C941C01C8
S11300400C941C010C941C010C941C010C941C01B8
S11300500C941C010C941C010C941C010C941C01A8
S11300600C941C010C941C010C941C010C941C0198
S11300700C941C010C941C010C941C010C941C0188
S11300800C941C010C941C010C941C010C941C0178
S11300900C941C010C941C010C941C010C941C0168
S11300A00C941C010C941C010C941C010C941C0158
S11300B00C941C010C941C010C941C010C941C0148
S11300C00C941C010C941C010C941C010C941C0138
S11300D00C941C010C941C010C941C010C941C0128
S11300E00C941C010C941C010C941C010C941C0118
S11300F00C941C010C941C010C941C010C941C0108
S11301000C941C010C941C010C941C010C941C01F7
S11301100C941C010C941C010C941C010C941C01E7
S11301200C941C010C941C010C941C010C941C01D7
S11301300C941C010C941C010C941C010C941C01C7
S11301400C941C010C941C010C941C010C941C01B7
S11301500C941C010C941C010C941C010C941C01A7
S11301600C941C010C941C010C941C010C941C0197
S11301700C941C010C941C010C941C010C941C0187
S11301800C941C010C941C010C941C010C941C0177
S11301900C941C010C941C010C941C010C941C0167
S11301A00C941C010C941C010C941C010C941C0157
S11301B00C941C010C941C010C941C010C941C0147
S11301C00C941C010C941C010C941C010C941C0137
S11301D00C941C010C941C010C941C010C941C0127
S11301E00C941C010C941C010C941C010C941C0117
S11301F00C941C010C941C010C941C0111241FBEB2
S1130200CFEFCDBFDFE3DEBF00E00CBF18BE19BEE9
S11302101ABE1BBE10E2A0E0B0E2E2E7F3E000E0A9
S11302200BBF02C007900D92A030B107D9F71BBED7
S11302300E9498010C94B7010C940000CF93DF93B3
S1130240CDB7DEB780E590E022E0FC01208300001A
S113025081E590E0FC018081882F90E082709927ED
S1130260892BB1F384E390E028EDFC01208380E442
S113027090E021E0FC0120830000DF91CF910895FC
S1130280CF93DF93CDB7DEB780E696E028E0FC019C
S1130290218380E696E028E0FC01258380E696E051
S11302A024E0FC01228384EA99E028E1FC01208314
S11302B085EA99E023E3FC01208380EA99E027E3BF
S11302C0FC01268380EA99E030EB24E0232BFC0137
S11302D027830000DF91CF910895CF93DF93CDB7AB
S11302E0DEB780E494E021E0FC01208380E494E024
S11302F025E1FC01208B80E494E020E0FC01238BC9
S113030080E494E020E8FC01228B81EE96E027E172
S1130310FC01208385EE96E027E1FC01208381E245
S113032097E02FEFFC0120830000DF91CF91089527
S1130330CF93DF9300D01F92CDB7DEB70E941E018A
S11303400E9440010E946D0180E095E889839A83B0
S113035081E095E88B839C8389819A8127E3FC0162
S113036020838B819C8123E7FC012083F5CFF894C3
S1050370FFCFB9
S9030000FC
