:020000020000FC
:0200000009C233
:100400005465737420666F72204F55545F53545275
:10041000494E47000E9458020E9424020E94110285
:10042000FDCF1EE200E0102EC4E4D7E3111629F040
:100430000E944F0219920C94160200E00883C4E453
:10044000D7E30E94440208950F9308E000936106E9
:100450000093650604E00093620608E10093A40996
:1004600003E30093A50904EB0093A70907E30093B6
:10047000A6090F9108950F930091A10905FFFCCFE4
:100480001092A0090F9108950F930991003029F05F
:10049000102E0E943B020C9445020F9108950F9379
:1004A0000091A10907FFFCCF1090A0090F910895BA
:1004B0001F932F933F934F9302E0009350001091AE
:1004C000510010231017D9F718ED1093340011E0E4
:0E04D000109340004F913F912F911F9108957E
:00000001FF
