:100000000C94FE000C941C010C941C010C941C011B
:100010000C941C010C941C010C941C010C941C01EC
:100020000C941C010C941C010C941C010C941C01DC
:100030000C941C010C941C010C947C020C941C016B
:100040000C941C010C941C010C941C010C941C01BC
:100050000C941C010C941C010C941C010C941C01AC
:100060000C941C010C941C010C941C010C941C019C
:100070000C941C010C941C010C941C010C941C018C
:100080000C941C010C941C010C941C010C941C017C
:100090000C941C010C941C010C941C010C941C016C
:1000A0000C941C010C941C010C941C010C941C015C
:1000B0000C941C010C941C010C941C010C941C014C
:1000C0000C941C010C941C010C941C010C941C013C
:1000D0000C941C010C941C010C941C010C941C012C
:1000E0000C941C010C941C010C941C010C941C011C
:1000F0000C941C010C941C010C941C010C941C010C
:100100000C941C010C941C010C941C010C941C01FB
:100110000C941C010C941C010C941C010C944501C2
:100120000C945F010C941C010C941C010C941C0198
:100130000C941C010C941C010C941C010C941C01CB
:100140000C941C010C941C010C941C010C941C01BB
:100150000C941C010C941C010C941C010C941C01AB
:100160000C941C010C941C010C941C010C941C019B
:100170000C941C010C941C010C941C010C941C018B
:100180000C941C010C941C010C941C010C941C017B
:100190000C941C010C941C010C941C010C941C016B
:1001A0000C941C010C941C010C941C010C941C015B
:1001B0000C941C010C941C010C941C010C941C014B
:1001C0000C941C010C941C010C941C010C941C013B
:1001D0000C941C010C941C010C941C010C941C012B
:1001E0000C941C010C941C010C941C010C941C011B
:1001F0000C941C010C941C010C941C0111241FBEB6
:10020000CFEFCDBFDFE3DEBF00E00CBF18BE19BEED
:100210001ABE1BBE10E2A0E0B0E2EEE5FAE000E09C
:100220000BBF02C007900D92AC3DB107D9F71BBEC2
:100230000E941F030C942D050C94000082E0809313
:1002400050008091510081FFFCCF88ED84BF81E098
:1002500080934000089583E480930206E0E0F2E09A
:1002600081E0808384E1818380E3828397E09483CB
:1002700083E080A32AE021A392A380A781E281A743
:100280008FE082A7108E118E08951F920F920FB6E5
:100290000F92112408B60F9218BE8F9380E58093B9
:1002A000650680E18093660681E0809323028F914A
:1002B0000F9008BE0F900FBE0F901F9018951F92C1
:1002C0000F920FB60F92112408B60F9218BE8F939B
:1002D00080E58093650680E48093660681E08093E4
:1002E0002B028F910F9008BE0F900FBE0F901F90A2
:1002F0001895E0E6F6E088E08183858384E08283D8
:1003000088E18093A40983E08093A509E0EAF9E0FD
:100310008EE8868388EB878308959091A10995FFE5
:10032000FCCF8093A0090895CF93DF93EC018991CE
:10033000882319F00E948D01FACFDF91CF910895A3
:100340008091A10987FFFCCF8091A00908952F9289
:100350003F924F925F926F927F928F929F92AF9255
:10036000BF92CF92DF92EF92FF920F931F93CF93A2
:10037000DF93CDB7DEB76097CDBFDEBF382E092F34
:10038000162F67FD619570E080E090E00E943404D4
:100390002AE037ED43EA5CE30E94C0046B017C0174
:1003A0000E94FC034B015C01262E7727072E000CD0
:1003B000880B990B0E9434049B01AC01C701B60164
:1003C0000E948F0320E030E040E251E40E94C0042C
:1003D0002B013C010E94FC036B017C01688B772799
:1003E000072E000C880B990B0E9434049B01AC0172
:1003F000C301B2010E948F0320E030E040E251E4EB
:100400000E94C0040E94FC03962F17FD02C08BE2DD
:1004100001C08DE289838FE0821538F0282D30E00D
:10042000F901E453FF4D808101C080E08A838EE2B0
:100430008B838889803138F42C2D30E0F901E45326
:10044000FF4D808101C080E08C83903130F4E62F35
:10045000F0E0E453FF4D808101C080E08D8380E2B5
:100460008E8396E59F83888788E28987E12FE295CE
:10047000EF70F0E0E453FF4D80818A871F70E12F19
:10048000F0E0E453FF4D80818B8789E28C878DE01B
:100490008D878AE08E871F86DE011196E32DF02F6F
:1004A000CE0140962D9121938A179B07D9F760962C
:1004B000CDBFDEBFDF91CF911F910F91FF90EF90E5
:1004C000DF90CF90BF90AF909F908F907F906F9074
:1004D0005F904F903F902F900895E0E0F8E083E028
:1004E000868387E080830895E0E0F8E0168210823A
:1004F00088E08093080808951F920F920FB60F921C
:10050000112408B60F9218BE09B60F9219BE0AB68A
:100510000F921ABE0BB60F921BBE2F933F934F93B1
:100520005F936F937F938F939F93AF93BF93EF935B
:10053000FF93CF93DF93CDB7DEB72F97CDBFDEBF4D
:10054000E0E0F2E080A1806880A364A1CE01019682
:100550000E94A70180E090E20E949401CE010196E2
:100560000E9494012F96CDBFDEBFDF91CF91FF9106
:10057000EF91BF91AF919F918F917F916F915F911B
:100580004F913F912F910F900BBE0F900ABE0F908D
:1005900009BE0F9008BE0F900FBE0F901F901895C8
:1005A000E0E4F4E081E0808385E1808B138A80E8D9
:1005B000828B87E18093E1068093E5068FEF80933D
:1005C00021070895EF92FF920F931F93CF93DF932C
:1005D000CDB7DEB72C97CDBFDEBF86E090E2898332
:1005E0009A8382E390E28B839C8385E690E28D83FD
:1005F0009E838FE790E28F83988785E990E28987D1
:100600009A878EEA90E28B879C878E010F5F1F4F3F
:100610007E018DE0E80EF11CF801819191918F012E
:100620000E9494010E151F05B9F72C96CDBFDEBFB1
:10063000DF91CF911F910F91FF90EF900895CF938D
:10064000DF93CDB7DEB76097CDBFDEBF0E941E013E
:100650000E9479010E942B0180E090E88093260897
:10066000909327080E94D0020E94E20280E58093C6
:1006700061068093650687E08093A20078940E94CB
:10068000A001863409F448C068F4833499F128F451
:100690008134B1F08234E1F0F2CF843471F18534E9
:1006A00079F1EDCF833631F128F4813649F0823685
:1006B00079F0E5CF853621F100F1863669F1DFCF9B
:1006C000809120028068809320028091240207C0DC
:1006D0008091280280688093280280912C02888B68
:1006E0006889CE0101960E94A701CE0101960E9461
:1006F0009401C5CF0E946D02C2CF0E947402BFCF89
:100700008091200280688093200280912402888B4F
:10071000888980930080B3CF80910080E0CF5058CB
:10072000BB27AA270E94A7030C9486040E94780482
:1007300038F00E947F0420F039F49F3F19F426F42A
:100740000C9475040EF4E095E7FB0C946F04E92F0C
:100750000E94970458F3BA17620773078407950736
:1007600020F079F4A6F50C94B9040EF4E0950B2E64
:10077000BA2FA02D0B01B90190010C01CA01A001F3
:100780001124FF27591B99F0593F50F4503E68F14E
:100790001A16F040A22F232F342F4427585FF3CF8F
:1007A000469537952795A795F0405395C9F77EF460
:1007B0001F16BA0B620B730B840BBAF09150A1F0A9
:1007C000FF0FBB1F661F771F881FC2F70EC0BA0F2F
:1007D000621F731F841F48F4879577956795B795B7
:1007E000F7959E3F08F0B0CF9395880F08F09927B2
:1007F000EE0F9795879508950E9403046894B111B0
:100800000C94BA0408950E949F0488F09F5798F0B2
:10081000B92F9927B751B0F0E1F0660F771F881F05
:10082000991F1AF0BA95C9F714C0B13091F00E941F
:10083000B904B1E008950C94B904672F782F882784
:10084000B85F39F0B93FCCF3869577956795B39546
:10085000D9F73EF490958095709561957F4F8F4FB5
:100860009F4F0895E89409C097FB3EF490958095BA
:10087000709561957F4F8F4F9F4F9923A9F0F92F66
:1008800096E9BB279395F695879577956795B795E4
:10089000F111F8CFFAF4BB0F11F460FF1BC06F5FCA
:1008A0007F4F8F4F9F4F16C0882311F096E911C0DC
:1008B000772321F09EE8872F762F05C0662371F0FD
:1008C00096E8862F70E060E02AF09A95660F771F11
:1008D000881FDAF7880F9695879597F9089597F905
:1008E0009F6780E870E060E008959FEF80EC0895D6
:1008F00000240A94161617061806090608950024FF
:100900000A9412161306140605060895092E039478
:10091000000C11F4882352F0BB0F40F4BF2B11F4EC
:1009200060FF04C06F5F7F4F8F4F9F4F089557FD4B
:100930009058440F551F59F05F3F71F04795880F4D
:1009400097FB991F61F09F3F79F0879508951216E4
:1009500013061406551FF2CF4695F1DF08C0161690
:1009600017061806991FF1CF869571056105089441
:100970000895E894BB2766277727CB0197F9089558
:100980000E94D3040C9486040E94780438F00E94DC
:100990007F0420F0952311F00C946F040C947504DF
:1009A00011240C94BA040E94970470F3959FC1F32C
:1009B000950F50E0551F629FF001729FBB27F00D0D
:1009C000B11D639FAA27F00DB11DAA1F649F662762
:1009D000B00DA11D661F829F2227B00DA11D621FB1
:1009E000739FB00DA11D621F839FA00D611D221F6B
:1009F000749F3327A00D611D231F849F600D211D4F
:100A0000822F762F6A2F11249F5750409AF0F1F0D1
:100A100088234AF0EE0FFF1FBB1F661F771F881F3A
:100A200091505040A9F79E3F510580F00C946F04FF
:100A30000C94BA045F3FE4F3983ED4F3869577951F
:100A40006795B795F795E7959F5FC1F7FE2B880FE0
:0E0A5000911D9695879597F90895F894FFCF1C
:100A5E004953523A2000412F613A20537461727407
:100A6E002F446973706C617920636F6E7665727353
:100A7E00696F6E206F6E204364532043656C6C0D5E
:100A8E000A00422F623A2053746172742F446973C4
:100A9E00706C617920636F6E76657273696F6E200C
:100AAE006F6E204441442F4E4144206368616E6E48
:100ABE00656C0D0A00432F633A2031207365636F16
:100ACE006E642074696D6572204364530D0A004490
:100ADE002F643A205475726E206F66662074696DAD
:100AEE0065720D0A00452F653A2053746F726520AA
:100AFE0043645320696E205352414D0D0A00462F18
:100B0E00663A20526561642F446973706C61792076
:100B1E005352414D20646174610D0A0030313233FD
:0C0B2E00343536373839414243444546DF
:00000001FF
